{
  "contractName": "GameMoments",
  "abi": [
    {
      "inputs": [],
      "payable": false,
      "stateMutability": "nonpayable",
      "type": "constructor"
    },
    {
      "anonymous": false,
      "inputs": [
        {
          "indexed": false,
          "internalType": "uint256",
          "name": "id",
          "type": "uint256"
        },
        {
          "indexed": false,
          "internalType": "string",
          "name": "hash",
          "type": "string"
        },
        {
          "indexed": false,
          "internalType": "string",
          "name": "title",
          "type": "string"
        },
        {
          "indexed": false,
          "internalType": "address",
          "name": "author",
          "type": "address"
        },
        {
          "indexed": false,
          "internalType": "string",
          "name": "game",
          "type": "string"
        }
      ],
      "name": "VideoUploaded",
      "type": "event"
    },
    {
      "constant": true,
      "inputs": [
        {
          "internalType": "address",
          "name": "",
          "type": "address"
        },
        {
          "internalType": "uint256",
          "name": "",
          "type": "uint256"
        }
      ],
      "name": "account_videos",
      "outputs": [
        {
          "internalType": "uint256",
          "name": "id",
          "type": "uint256"
        },
        {
          "internalType": "string",
          "name": "hash",
          "type": "string"
        },
        {
          "internalType": "string",
          "name": "title",
          "type": "string"
        },
        {
          "internalType": "address",
          "name": "author",
          "type": "address"
        },
        {
          "internalType": "string",
          "name": "game",
          "type": "string"
        }
      ],
      "payable": false,
      "stateMutability": "view",
      "type": "function"
    },
    {
      "constant": true,
      "inputs": [
        {
          "internalType": "string",
          "name": "",
          "type": "string"
        },
        {
          "internalType": "uint256",
          "name": "",
          "type": "uint256"
        }
      ],
      "name": "game_videos",
      "outputs": [
        {
          "internalType": "uint256",
          "name": "id",
          "type": "uint256"
        },
        {
          "internalType": "string",
          "name": "hash",
          "type": "string"
        },
        {
          "internalType": "string",
          "name": "title",
          "type": "string"
        },
        {
          "internalType": "address",
          "name": "author",
          "type": "address"
        },
        {
          "internalType": "string",
          "name": "game",
          "type": "string"
        }
      ],
      "payable": false,
      "stateMutability": "view",
      "type": "function"
    },
    {
      "constant": true,
      "inputs": [],
      "name": "name",
      "outputs": [
        {
          "internalType": "string",
          "name": "",
          "type": "string"
        }
      ],
      "payable": false,
      "stateMutability": "view",
      "type": "function"
    },
    {
      "constant": true,
      "inputs": [],
      "name": "videoCount",
      "outputs": [
        {
          "internalType": "uint256",
          "name": "",
          "type": "uint256"
        }
      ],
      "payable": false,
      "stateMutability": "view",
      "type": "function"
    },
    {
      "constant": true,
      "inputs": [
        {
          "internalType": "uint256",
          "name": "",
          "type": "uint256"
        }
      ],
      "name": "videos",
      "outputs": [
        {
          "internalType": "uint256",
          "name": "id",
          "type": "uint256"
        },
        {
          "internalType": "string",
          "name": "hash",
          "type": "string"
        },
        {
          "internalType": "string",
          "name": "title",
          "type": "string"
        },
        {
          "internalType": "address",
          "name": "author",
          "type": "address"
        },
        {
          "internalType": "string",
          "name": "game",
          "type": "string"
        }
      ],
      "payable": false,
      "stateMutability": "view",
      "type": "function"
    },
    {
      "constant": false,
      "inputs": [
        {
          "internalType": "string",
          "name": "_videoHash",
          "type": "string"
        },
        {
          "internalType": "string",
          "name": "_title",
          "type": "string"
        },
        {
          "internalType": "string",
          "name": "_game",
          "type": "string"
        }
      ],
      "name": "uploadVideo",
      "outputs": [],
      "payable": false,
      "stateMutability": "nonpayable",
      "type": "function"
    },
    {
      "constant": true,
      "inputs": [
        {
          "internalType": "string",
          "name": "_game",
          "type": "string"
        }
      ],
      "name": "returnVideosInGame",
      "outputs": [
        {
          "components": [
            {
              "internalType": "uint256",
              "name": "id",
              "type": "uint256"
            },
            {
              "internalType": "string",
              "name": "hash",
              "type": "string"
            },
            {
              "internalType": "string",
              "name": "title",
              "type": "string"
            },
            {
              "internalType": "address",
              "name": "author",
              "type": "address"
            },
            {
              "internalType": "string",
              "name": "game",
              "type": "string"
            }
          ],
          "internalType": "struct GameMoments.Video[]",
          "name": "",
          "type": "tuple[]"
        }
      ],
      "payable": false,
      "stateMutability": "view",
      "type": "function"
    },
    {
      "constant": true,
      "inputs": [],
      "name": "returnVideosForAddress",
      "outputs": [
        {
          "components": [
            {
              "internalType": "uint256",
              "name": "id",
              "type": "uint256"
            },
            {
              "internalType": "string",
              "name": "hash",
              "type": "string"
            },
            {
              "internalType": "string",
              "name": "title",
              "type": "string"
            },
            {
              "internalType": "address",
              "name": "author",
              "type": "address"
            },
            {
              "internalType": "string",
              "name": "game",
              "type": "string"
            }
          ],
          "internalType": "struct GameMoments.Video[]",
          "name": "",
          "type": "tuple[]"
        }
      ],
      "payable": false,
      "stateMutability": "view",
      "type": "function"
    }
  ],
  "bytecode": "0x6080604052600080556040518060400160405280600681526020017f44566964656f000000000000000000000000000000000000000000000000000081525060019080519060200190620000559291906200006a565b503480156200006357600080fd5b5062000119565b828054600181600116156101000203166002900490600052602060002090601f016020900481019282601f10620000ad57805160ff1916838001178555620000de565b82800160010185558215620000de579182015b82811115620000dd578251825591602001919060010190620000c0565b5b509050620000ed9190620000f1565b5090565b6200011691905b8082111562000112576000816000905550600101620000f8565b5090565b90565b611bb580620001296000396000f3fe608060405234801561001057600080fd5b50600436106100885760003560e01c806393841c4d1161005b57806393841c4d1461012b578063c61b5f4c14610149578063ce01fe4714610167578063e6821bf51461019b57610088565b806306fdde031461008d578063159fbe9d146100ab5780634875e9fd146100db57806381905fb2146100f7575b600080fd5b6100956101cf565b6040516100a29190611871565b60405180910390f35b6100c560048036036100c091908101906114af565b61026d565b6040516100d2919061184f565b60405180910390f35b6100f560048036036100f091908101906114f0565b610530565b005b610111600480360361010c9190810190611473565b610970565b604051610122959493929190611916565b60405180910390f35b610133610ba8565b604051610140919061184f565b60405180910390f35b610151610e8a565b60405161015e9190611893565b60405180910390f35b610181600480360361017c9190810190611587565b610e90565b604051610192959493929190611916565b60405180910390f35b6101b560048036036101b091908101906115db565b6110de565b6040516101c6959493929190611916565b60405180910390f35b60018054600181600116156101000203166002900480601f0160208091040260200160405190810160405280929190818152602001828054600181600116156101000203166002900480156102655780601f1061023a57610100808354040283529160200191610265565b820191906000526020600020905b81548152906001019060200180831161024857829003601f168201915b505050505081565b606060048260405161027f9190611838565b9081526020016040518091039020805480602002602001604051908101604052809291908181526020016000905b8282101561052557838290600052602060002090600502016040518060a001604052908160008201548152602001600182018054600181600116156101000203166002900480601f0160208091040260200160405190810160405280929190818152602001828054600181600116156101000203166002900480156103735780601f1061034857610100808354040283529160200191610373565b820191906000526020600020905b81548152906001019060200180831161035657829003601f168201915b50505050508152602001600282018054600181600116156101000203166002900480601f0160208091040260200160405190810160405280929190818152602001828054600181600116156101000203166002900480156104155780601f106103ea57610100808354040283529160200191610415565b820191906000526020600020905b8154815290600101906020018083116103f857829003601f168201915b505050505081526020016003820160009054906101000a900473ffffffffffffffffffffffffffffffffffffffff1673ffffffffffffffffffffffffffffffffffffffff1673ffffffffffffffffffffffffffffffffffffffff168152602001600482018054600181600116156101000203166002900480601f01602080910402602001604051908101604052809291908181526020018280546001816001161561010002031660029004801561050d5780601f106104e25761010080835404028352916020019161050d565b820191906000526020600020905b8154815290600101906020018083116104f057829003601f168201915b505050505081525050815260200190600101906102ad565b505050509050919050565b600083511161053e57600080fd5b600082511161054c57600080fd5b600081511161055a57600080fd5b600073ffffffffffffffffffffffffffffffffffffffff163373ffffffffffffffffffffffffffffffffffffffff16141561059457600080fd5b60008081548092919060010191905055506040518060a0016040528060005481526020018481526020018381526020013373ffffffffffffffffffffffffffffffffffffffff16815260200182815250600260008054815260200190815260200160002060008201518160000155602082015181600101908051906020019061061e9291906112fc565b50604082015181600201908051906020019061063b9291906112fc565b5060608201518160030160006101000a81548173ffffffffffffffffffffffffffffffffffffffff021916908373ffffffffffffffffffffffffffffffffffffffff160217905550608082015181600401908051906020019061069f9291906112fc565b50905050600360003373ffffffffffffffffffffffffffffffffffffffff1673ffffffffffffffffffffffffffffffffffffffff1681526020019081526020016000206040518060a0016040528060005481526020018581526020018481526020013373ffffffffffffffffffffffffffffffffffffffff16815260200183815250908060018154018082558091505090600182039060005260206000209060050201600090919290919091506000820151816000015560208201518160010190805190602001906107729291906112fc565b50604082015181600201908051906020019061078f9291906112fc565b5060608201518160030160006101000a81548173ffffffffffffffffffffffffffffffffffffffff021916908373ffffffffffffffffffffffffffffffffffffffff16021790555060808201518160040190805190602001906107f39291906112fc565b505050506004816040516108079190611838565b90815260200160405180910390206040518060a0016040528060005481526020018581526020018481526020013373ffffffffffffffffffffffffffffffffffffffff16815260200183815250908060018154018082558091505090600182039060005260206000209060050201600090919290919091506000820151816000015560208201518160010190805190602001906108a59291906112fc565b5060408201518160020190805190602001906108c29291906112fc565b5060608201518160030160006101000a81548173ffffffffffffffffffffffffffffffffffffffff021916908373ffffffffffffffffffffffffffffffffffffffff16021790555060808201518160040190805190602001906109269291906112fc565b505050507f79d808796485e1c0dcf88af2fd6081c6a6805bc890cc9a87c8f403781ad576c5600054848433856040516109639594939291906118ae565b60405180910390a1505050565b6003602052816000526040600020818154811061098957fe5b906000526020600020906005020160009150915050806000015490806001018054600181600116156101000203166002900480601f016020809104026020016040519081016040528092919081815260200182805460018160011615610100020316600290048015610a3c5780601f10610a1157610100808354040283529160200191610a3c565b820191906000526020600020905b815481529060010190602001808311610a1f57829003601f168201915b505050505090806002018054600181600116156101000203166002900480601f016020809104026020016040519081016040528092919081815260200182805460018160011615610100020316600290048015610ada5780601f10610aaf57610100808354040283529160200191610ada565b820191906000526020600020905b815481529060010190602001808311610abd57829003601f168201915b5050505050908060030160009054906101000a900473ffffffffffffffffffffffffffffffffffffffff1690806004018054600181600116156101000203166002900480601f016020809104026020016040519081016040528092919081815260200182805460018160011615610100020316600290048015610b9e5780601f10610b7357610100808354040283529160200191610b9e565b820191906000526020600020905b815481529060010190602001808311610b8157829003601f168201915b5050505050905085565b6060600360003373ffffffffffffffffffffffffffffffffffffffff1673ffffffffffffffffffffffffffffffffffffffff168152602001908152602001600020805480602002602001604051908101604052809291908181526020016000905b82821015610e8157838290600052602060002090600502016040518060a001604052908160008201548152602001600182018054600181600116156101000203166002900480601f016020809104026020016040519081016040528092919081815260200182805460018160011615610100020316600290048015610ccf5780601f10610ca457610100808354040283529160200191610ccf565b820191906000526020600020905b815481529060010190602001808311610cb257829003601f168201915b50505050508152602001600282018054600181600116156101000203166002900480601f016020809104026020016040519081016040528092919081815260200182805460018160011615610100020316600290048015610d715780601f10610d4657610100808354040283529160200191610d71565b820191906000526020600020905b815481529060010190602001808311610d5457829003601f168201915b505050505081526020016003820160009054906101000a900473ffffffffffffffffffffffffffffffffffffffff1673ffffffffffffffffffffffffffffffffffffffff1673ffffffffffffffffffffffffffffffffffffffff168152602001600482018054600181600116156101000203166002900480601f016020809104026020016040519081016040528092919081815260200182805460018160011615610100020316600290048015610e695780601f10610e3e57610100808354040283529160200191610e69565b820191906000526020600020905b815481529060010190602001808311610e4c57829003601f168201915b50505050508152505081526020019060010190610c09565b50505050905090565b60005481565b6004828051602081018201805184825260208301602085012081835280955050505050508181548110610ebf57fe5b906000526020600020906005020160009150915050806000015490806001018054600181600116156101000203166002900480601f016020809104026020016040519081016040528092919081815260200182805460018160011615610100020316600290048015610f725780601f10610f4757610100808354040283529160200191610f72565b820191906000526020600020905b815481529060010190602001808311610f5557829003601f168201915b505050505090806002018054600181600116156101000203166002900480601f0160208091040260200160405190810160405280929190818152602001828054600181600116156101000203166002900480156110105780601f10610fe557610100808354040283529160200191611010565b820191906000526020600020905b815481529060010190602001808311610ff357829003601f168201915b5050505050908060030160009054906101000a900473ffffffffffffffffffffffffffffffffffffffff1690806004018054600181600116156101000203166002900480601f0160208091040260200160405190810160405280929190818152602001828054600181600116156101000203166002900480156110d45780601f106110a9576101008083540402835291602001916110d4565b820191906000526020600020905b8154815290600101906020018083116110b757829003601f168201915b5050505050905085565b6002602052806000526040600020600091509050806000015490806001018054600181600116156101000203166002900480601f0160208091040260200160405190810160405280929190818152602001828054600181600116156101000203166002900480156111905780601f1061116557610100808354040283529160200191611190565b820191906000526020600020905b81548152906001019060200180831161117357829003601f168201915b505050505090806002018054600181600116156101000203166002900480601f01602080910402602001604051908101604052809291908181526020018280546001816001161561010002031660029004801561122e5780601f106112035761010080835404028352916020019161122e565b820191906000526020600020905b81548152906001019060200180831161121157829003601f168201915b5050505050908060030160009054906101000a900473ffffffffffffffffffffffffffffffffffffffff1690806004018054600181600116156101000203166002900480601f0160208091040260200160405190810160405280929190818152602001828054600181600116156101000203166002900480156112f25780601f106112c7576101008083540402835291602001916112f2565b820191906000526020600020905b8154815290600101906020018083116112d557829003601f168201915b5050505050905085565b828054600181600116156101000203166002900490600052602060002090601f016020900481019282601f1061133d57805160ff191683800117855561136b565b8280016001018555821561136b579182015b8281111561136a57825182559160200191906001019061134f565b5b509050611378919061137c565b5090565b61139e91905b8082111561139a576000816000905550600101611382565b5090565b90565b6000813590506113b081611b44565b92915050565b600082601f8301126113c757600080fd5b81356113da6113d5826119ab565b61197e565b915080825260208301602083018583830111156113f657600080fd5b611401838284611af1565b50505092915050565b600082601f83011261141b57600080fd5b813561142e611429826119d7565b61197e565b9150808252602083016020830185838301111561144a57600080fd5b611455838284611af1565b50505092915050565b60008135905061146d81611b5b565b92915050565b6000806040838503121561148657600080fd5b6000611494858286016113a1565b92505060206114a58582860161145e565b9150509250929050565b6000602082840312156114c157600080fd5b600082013567ffffffffffffffff8111156114db57600080fd5b6114e78482850161140a565b91505092915050565b60008060006060848603121561150557600080fd5b600084013567ffffffffffffffff81111561151f57600080fd5b61152b8682870161140a565b935050602084013567ffffffffffffffff81111561154857600080fd5b6115548682870161140a565b925050604084013567ffffffffffffffff81111561157157600080fd5b61157d8682870161140a565b9150509250925092565b6000806040838503121561159a57600080fd5b600083013567ffffffffffffffff8111156115b457600080fd5b6115c0858286016113b6565b92505060206115d18582860161145e565b9150509250929050565b6000602082840312156115ed57600080fd5b60006115fb8482850161145e565b91505092915050565b60006116108383611796565b905092915050565b61162181611abb565b82525050565b61163081611a7f565b82525050565b61163f81611a7f565b82525050565b600061165082611a13565b61165a8185611a41565b93508360208202850161166c85611a03565b8060005b858110156116a857848403895281516116898582611604565b945061169483611a34565b925060208a01995050600181019050611670565b50829750879550505050505092915050565b60006116c582611a29565b6116cf8185611a63565b93506116df818560208601611b00565b6116e881611b33565b840191505092915050565b60006116fe82611a29565b6117088185611a74565b9350611718818560208601611b00565b80840191505092915050565b600061172f82611a1e565b6117398185611a52565b9350611749818560208601611b00565b61175281611b33565b840191505092915050565b600061176882611a1e565b6117728185611a63565b9350611782818560208601611b00565b61178b81611b33565b840191505092915050565b600060a0830160008301516117ae600086018261181a565b50602083015184820360208601526117c68282611724565b915050604083015184820360408601526117e08282611724565b91505060608301516117f56060860182611627565b506080830151848203608086015261180d8282611724565b9150508091505092915050565b61182381611ab1565b82525050565b61183281611ab1565b82525050565b600061184482846116f3565b915081905092915050565b600060208201905081810360008301526118698184611645565b905092915050565b6000602082019050818103600083015261188b818461175d565b905092915050565b60006020820190506118a86000830184611829565b92915050565b600060a0820190506118c36000830188611829565b81810360208301526118d581876116ba565b905081810360408301526118e981866116ba565b90506118f86060830185611618565b818103608083015261190a81846116ba565b90509695505050505050565b600060a08201905061192b6000830188611829565b818103602083015261193d818761175d565b90508181036040830152611951818661175d565b90506119606060830185611636565b8181036080830152611972818461175d565b90509695505050505050565b6000604051905081810181811067ffffffffffffffff821117156119a157600080fd5b8060405250919050565b600067ffffffffffffffff8211156119c257600080fd5b601f19601f8301169050602081019050919050565b600067ffffffffffffffff8211156119ee57600080fd5b601f19601f8301169050602081019050919050565b6000819050602082019050919050565b600081519050919050565b600081519050919050565b600081519050919050565b6000602082019050919050565b600082825260208201905092915050565b600082825260208201905092915050565b600082825260208201905092915050565b600081905092915050565b6000611a8a82611a91565b9050919050565b600073ffffffffffffffffffffffffffffffffffffffff82169050919050565b6000819050919050565b6000611ac682611acd565b9050919050565b6000611ad882611adf565b9050919050565b6000611aea82611a91565b9050919050565b82818337600083830152505050565b60005b83811015611b1e578082015181840152602081019050611b03565b83811115611b2d576000848401525b50505050565b6000601f19601f8301169050919050565b611b4d81611a7f565b8114611b5857600080fd5b50565b611b6481611ab1565b8114611b6f57600080fd5b5056fea365627a7a72315820b37298592fb4b79ccad22eef684e9b8479c77000b737846fc6ed58fff92989326c6578706572696d656e74616cf564736f6c63430005100040",
  "source": "// to update smart contract code, do \"truffle migrate --reset\"\n// * NEED Ganache OPEN * //\n\npragma solidity ^0.5.0;\npragma experimental ABIEncoderV2;\n\n// [X] 1. Model the Video\n// [X] 2. Store the Video\n// [X] 3. Upload Video\n// [X] 4. List Videos\n\ncontract GameMoments {\n    uint256 public videoCount = 0;\n    //\"public\" means can access outside of the smart contract\n    // you can get this value by doing \"truffle console\", doing dVideo = await DVideo.deployed(), then doing name = await dVideo.name(), and typing name\n    string public name = \"DVideo\";\n    mapping(uint256 => Video) public videos;\n\n    // map a person's address to all the videos they have\n    mapping(address => Video[]) public account_videos;\n\n    // mapping videos to games\n    mapping(string => Video[]) public game_videos;\n\n    // 1. Model the Video\n    struct Video {\n        uint256 id;\n        string hash; //from ipfs\n        string title;\n        address author;\n        string game;\n    }\n\n    event VideoUploaded(\n        uint256 id,\n        string hash,\n        string title,\n        address author,\n        string game\n    );\n\n    constructor() public {}\n\n    function uploadVideo(\n        string memory _videoHash,\n        string memory _title,\n        string memory _game\n    ) public {\n        // Make sure the video hash exists\n        require(bytes(_videoHash).length > 0);\n        // Make sure video title exists\n        require(bytes(_title).length > 0);\n        // Make sure game category exists\n        require(bytes(_game).length > 0);\n        // Make sure uploader address exists\n        require(msg.sender != address(0));\n\n        // Increment video id\n        videoCount++;\n\n        // Add video to the contract\n        videos[videoCount] = Video(\n            videoCount,\n            _videoHash,\n            _title,\n            msg.sender,\n            _game\n        ); // msg is a global variable, msg.sender is the person (address) calling the function\n\n        // adding the video to a person's personal collection\n        account_videos[msg.sender].push(\n            Video(videoCount, _videoHash, _title, msg.sender, _game)\n        );\n\n        // pushing a new Video into a collection for its game\n        game_videos[_game].push(\n            Video(videoCount, _videoHash, _title, msg.sender, _game)\n        );\n\n        // Trigger an event\n        emit VideoUploaded(videoCount, _videoHash, _title, msg.sender, _game);\n    }\n\n    function returnVideosInGame(string memory _game)\n        public\n        view\n        returns (Video[] memory)\n    {\n        return game_videos[_game];\n    }\n\n    function returnVideosForAddress() public view returns (Video[] memory) {\n        return account_videos[msg.sender];\n    }\n}\n",
  "sourcePath": "/Users/jacob/GamingMoments/src/contracts/GameMoments.sol",
  "compiler": {
    "name": "solc",
    "version": "0.5.16+commit.9c3226ce.Emscripten.clang"
  },
  "schemaVersion": "3.3.3",
  "updatedAt": "2021-02-17T00:00:17.059Z",
  "networkType": "ethereum",
  "devdoc": {
    "methods": {}
  },
  "userdoc": {
    "methods": {}
  }
}